:020000040000fa
:080000004002040000000000b2
:020000040000fa
:100008000c18000010180000141800001818000040
:100018001c180000201800002418000028180000f0
:100028002c180000301800003418000022020000cc
:100038001c1900003c18000040180000441800007b
:10004800481800004c180000501800005418000010
:10005800581800005c1800001c1900001c1900004a
:100068006018000064180000681800006c18000090
:10007800701800001c19000074180000781800009f
:100088001c1900007c18000080180000841800006b
:10009800881800008c1800002c02000036020000ae
:1000a800981800009c1800001c1900001c1900007a
:1000b8001c190000a0180000a4180000a8180000cf
:1000c800ac180000b0180000b4180000b818000000
:1000d800bc180000c01800001c1900001c19000002
:1000e8001c190000c4180000c81800001c190000e2
:1000f8001c190000cc180000d01800001c190000c2
:100108001c1900001c1900001c1900001c19000013
:100118001c1900001c190000d41800001c1900004c
:100128001c190000d8180000dc180000e0180000b6
:100138001c1900001c1900001c1900001c190000e3
:10014800e41800001c1900001c1900001c1900000c
:100158001c190000e81800001c1900001c190000f8
:100168001c190000ec180000f0180000f41800003a
:10017800f8180000fc1800001c1900000019000005
:1001880004190000081900000c19000010190000db
:1001980014190000181900001c1900001c1900008f
:1001a8001c1900001c1900001c1900001c19000073
:1001b8001c1900001c1900001c1900001c19000063
:1001c8001c1900001c1900001c1900001c19000053
:1001d8001c1900001c1900001c1900001c19000043
:1001e8001c1900001c1900001c1900001c19000033
:0801f8001c1900001c19000095
:020000040000fa
:08020000ffffff00ffffff00fc
:020000040000fa
:1002080000000000000000000000000000000000e6
:1002180000000000000000000000000000000000d6
:10022800000000000000000000000000161400009c
:1002380000000000000000000000000000000000b6
:1002480000000000000000000000000000000000a6
:100258000000000000000000000000000000000096
:100268000000000000000000000000000000000086
:100278000000000000000000000000000000000076
:100288000000000000000000000000000000000066
:100298000000000000000000dc0200002e03000047
:1002a8000000000000000000000000000000000046
:1002b8000000000000000000000000000000000036
:1002c8000000000000000000000000000000000026
:1002d8000000000000000000000000000000000016
:1002e8000000000000000000000000000000000006
:1002f80000000000000000000000000000000000f6
:1003080000000000000000000000000000000000e5
:1003180000000000000000000000000000000000d5
:1003280000000000000000000000000000000000c5
:1003380000000000000000000000000000000000b5
:1003480000000000000000000000000000000000a5
:100358000000000000000000000000000000000095
:100368000000000000000000000000000000000085
:100378000000000000000000000000000000000075
:100388000000000000000000000000000000000065
:100398000000000000000000000000000000000055
:1003a8000000000000000000000000000000000045
:1003b8000000000000000000000000000000000035
:1003c8000000000000000000000000000000000025
:1003d8000000000000000000000000000000000015
:1003e8000000000000000000000000000000000005
:0803f8000000000000000000fd
:020000040000fa
:100400000100000050080000000900000100000089
:100410000000000000ac020001000000000000002d
:1004200004180000010000000418000000ac0200e5
:1004300001000000fcab020000ac0200ffffff0067
:10044000ff7fff006208af003818040000000000c2
:1004500016140400000000006228af009018040089
:1004600000000000dc020400000000006248af0051
:1004700094180400000000002e0304000000000097
:100480000f9020000e7f24000e0188000000000065
:1004900000012000200288000c000700202b210012
:1004a0000100200011000700000020000000e00013
:1004b0000200320000000200000000009e0e020058
:1004c000000000000040da000000fe004440a900e7
:1004d000200020000000e0000300320000002000a7
:1004e000a00188004440a800000006009101880097
:1004f000800078000000eb0015003700e28040002b
:1005000032a0b4009101ba00e280400032a0b400f1
:100510009102ba00e280400032a0b4000002eb0079
:10052000472bde00f507b200602ce10004003a0022
:100530000059eb008301e900fdff3e000400370095
:100540006128e100010032000082eb000400070096
:100550001101ba000200e000e8ff3a0000000600c6
:100560003159ba008301e9000c0032002159ba0068
:100570008301e900080032000400e00003003a00b3
:10058000e280400032a0b400f5ff370011d9ba0074
:100590008301e900faff3a008100e800e1804000b1
:1005a00032a0b400000006000000040000000000bb
:1005b0000000040000000000809fbe00829fbe007b
:1005c000849fbe00869fbe00889fbe0087c0a90092
:1005d000c4872000e6035200f6052000e402520022
:1005e0002206200004014100100020008481e80060
:1005f00011003700b9118000940078009811800034
:100600006e046400010a7400970f130002003600a4
:100610001400a00008003700950078008958780081
:10062000810a7800828f500001003900830a780027
:1006300061872000910840003202ab00edff3a00d4
:100640003222a9004f04be004f03be004f02be007d
:100650004f01be004f00be0000400600809fbe005c
:10066000829fbe00849fbe00869fbe00881f7800c8
:1006700087e0a9003322ab001b003a00444380000e
:10068000e00f520005003a00170037008000eb0031
:10069000908f100007003a0013003700c486200036
:1006a000ea0342000481e800160020000520200033
:1006b0006600510094007800314478008881fb0086
:1006c000a3118800010a7800878f500001003900cb
:1006d000020a7800818620009108130091118000a1
:1006e00085806000e9ff32004f0478004f03be00b0
:1006f0004f02be004f01be004f00be00004006008a
:100700006022b800060220000000d0008180d200e4
:100710000482d2008582d2000000a00002025200b2
:1007200083825a00030031000202420083824a00a1
:100730000000a1000603e900f3ff3a0000000600f4
:100740000002780002003700315a78000201e90007
:10075000e00f5100fcff3a0000000600e887470068
:10076000889fbe008a9fbe008c9fbe008e1f7800af
:10077000000478002400200005002000e4b79f005a
:10078000f5b79f006fb39700ffb397001443800045
:1007900025438000040063000583630007002000f8
:1007a000c032dd00040020006103b80006027200c0
:1007b000878272000000eb00e00f5200e08f5a00c9
:1007c00071013a002c15020000000000e00f5000fb
:1007d0001d003a0000102000e00f54006a013200b2
:1007e00028140200000000000004be000a150200e8
:1007f00000000000e00f500009003a00c6478000ea
:10080000d74780000603540087835c008442800041
:1008100095428000840f5300858f5b0004003e00ea
:10082000e4438000640262000010200056013200a0
:100830000215020000000000c8478800d947880060
:1008400000102000500137002814020000000000b2
:10085000c0478800d14788007c14020000000000d7
:10086000804678000002fb00cfa2de003402b10017
:100870000580b10046042000860f5200e08f5a0028
:100880002f013e00046001007c0037002c0137007e
:100890002b0137002a0137002901370028013700d2
:1008a00027013700260137002501370024013700d2
:1008b00023013700220137002101370020013700d2
:1008c0001f0137001e0137001d0137001c013700d2
:1008d0001b0137001a0137001901370018013700d2
:1008e00017013700160137001501370014013700d2
:1008f00013013700120137005a003700100137008a
:100900000f0137000e013700aa0037000c01370035
:10091000260037000a01370009013700a50037001b
:1009200007013700060137000501370004013700d1
:10093000a000370002013700010137009d00370099
:10094000ff003700fe003700fd003700fc003700d5
:1009500012003700fa003700f9003700f8003700be
:10096000f7003700f6003700f5003700f4003700d5
:10097000f3003700f2003700f1003700f0003700d5
:10098000ef003700ad0037007f0037007e003700f2
:100990007d003700ea0037004e0037005c1402008b
:1009a000000000008042eb00f20037002814020033
:1009b000000000000004be000a0120002c15020007
:1009c00000000000e00f500004003200201502007b
:1009d00000000000e00f50000d003a002814020053
:1009e0000000000008005000898058008442800008
:1009f000954280004e2bdd004222de00040273008f
:100a0000c22ade00840f5000858f5800ebff3900aa
:100a100028140200000000000800500089805800df
:100a200084428000954280004e2bdd004222de0091
:100a300004027300c22ade00840f5000858f580024
:100a4000c70031007c140200000000005c140200aa
:100a5000000000000a05e900d8ff3a008042eb00e0
:100a6000c400370001012000e08d2000e20f0200e9
:100a7000000000008042eb00be003700b0c2b300af
:100a80005c14020000000000de1302000000000001
:100a9000f213020000000000e21302000000000058
:100aa000f213020000000000fa140200000000002f
:100ab000000478002c15020000000000080040002f
:100ac00001002000f2130200000000008042eb0051
:100ad000a80037006420200005002000e4b79f0034
:100ae000f5b79f006fb59700ffb59700b0c2b30090
:100af0005c140200000000000007eb000a00be00ca
:100b0000b4140200000000000004780062054500f3
:100b1000e0854d004c14020000000000080644006f
:100b2000140032000c02e90084bf9f000a04be00da
:100b30000800be00b414020000000000041402000b
:100b40000000000062044400e0844c000c06e90050
:100b5000f7ff3a0062054500e0854d000fbb9700a6
:100b60006132b8000402420085824a000a05420050
:100b70008b854a000e07e800e30f5700dfff3a00bd
:100b80008042eb007b003700b0c2b3005c1402006f
:100b9000000000000d00fb003006b100680f0200ed
:100ba00000000000f2130200000000008042eb0091
:100bb00070003700648f200014427800e04f52002c
:100bc00004003a00d5c4b300854f500012003a002b
:100bd00065003700d5c4b300854f520005003a00c8
:100be00034c4b3008042eb00844f500061003a00ef
:100bf0005f00370035c4b300854f520006003a004d
:100c00008042eb0084c4b300844f500059003a0086
:100c100084427800570037008042eb0086c4b3005e
:100c2000864f520053003a0005c5b30085cf5600e9
:100c3000500032008042eb004e0037008042eb0053
:100c400004c5b300668f2000964f120049003a0099
:100c5000b0c2b3005c1402000000000084478000b2
:100c6000e00f52000f00320040092000420a20002d
:100c7000000151000281d1008000eb00cc14020081
:100c8000000000006228ef006428ef009047800019
:100c9000a14780004013020000000000261502005a
:100ca000000000006044b8001cc22f000085eb006b
:100cb0008085eb003c4388000800be00c8090200a4
:100cc000000000000004be008a0f50008b8f580007
:100cd00004003200e0c2b3005c1402000000000017
:100ce000f4ff3700b0c2b3005c1402000000000043
:100cf000803e2000d006020000000000cf80de0011
:100d0000c000dd0000002000f2130200000000001f
:100d100084478000e00f520003003200e41202001a
:100d2000000000000000fe00281402000000000087
:100d3000c0478800d14788008042eb000d00370093
:100d4000648f2000004aeb00e00f540002003200e4
:100d500002150200000000000d00fb000a00370031
:100d60008042eb000300370080427800010037002a
:100d700080427800648f2000054a78000d00fb0057
:100d800004002800040070004f0778004f06be00e2
:100d90004f05be004f04be008f00b10000000600ea
:100da000cf33b000889fbe008a9fbe008c9fbe00dc
:100db0008e1f7800000678006022b80084b79f007c
:100dc00095b79f000480210005002000b4b79f0064
:100dd000c5b79f003fb49700cfb49700e4bf2a0087
:100de00025002000b4b79f00c5b79f003fb0970013
:100df000cfb09700d0b79f00e1b79f008c0178007b
:100e000002fe2f000f014100c101200080cb2f0006
:100e10000f004000f00c0200000000008086eb0094
:100e2000fc0f500052013a004f9b9400df9b94004e
:100e30007c025300e0825b00c49f9c00d59f9c0015
:100e40006033b800a6af9c00b7af9c00e40f52001f
:100e5000e08f5a001e0136001d002000c7cd2f0074
:100e60008f8343000707e9002faa9400bfaa9400cc
:100e7000e00f5200e08f5a0016003a008c01780013
:100e800002fe2f000f0141008100200040cd2f0005
:100e90000f004000f00c020000000000e80f5000be
:100ea00026013a004f989400df98940068005000a3
:100eb000e0805800c09f9c00d19f9c002faa940006
:100ec000bfaa940068025200e0825a00a4af9c00be
:100ed000b5af9c002faa9400bfaa94004f9b94002a
:100ee000df9b9400060072008780720006f82f00d6
:100ef0000103630013013a00f6ff2f00f70f2000f3
:100f00004fa89400dfa89400860f5000878f5800e8
:100f10000e013e000b182000f7172000870f52002b
:100f2000e08f5a0001003e00840578008c017800b3
:100f300002fe2f000f0141008b007800c0cd2f0072
:100f40000f004000f00c02000000000000057800d7
:100f50008b0f5500ff003a000a017800c1cd2f0029
:100f60008f804000c0e52f000f004000c014020039
:100f7000000000000060fe00f03d20006628b40084
:100f80008a017800c2cd2f000f0141004fa89400c4
:100f9000dfa89400b213020000000000e0af9f0041
:100fa000f1af9f000a017800c1e52f008f8040005b
:100fb000c0cd2f000f004000c01402000000000050
:100fc0000a0278008000eb004fa99400dfa994008a
:100fd000c0e52f000f004000b61102000000000025
:100fe0000a017800c1e52f008f804000c0cd2f009e
:100ff0000f0040008c14020000000000e00f5000c1
:101000009e0032004fa89400dfa89400f0b79f0024
:1010100081bf9f0004f02f00f50f2000ffb0970064
:10102000010062008fbb9700078362000700200069
:10103000c032dd00040020006103b8000602720027
:101040008782720006002000870f2000860f520062
:10105000878f5a000f003a000002eb00a4b79f00f0
:10106000840f5500470032000e027800c5e52f00be
:101070008f824200050345000402e8001440780016
:10108000354a6000868f5200fbff3a00aab79f00e6
:101090003c0037005fb29700efb29700e00f5200bc
:1010a000e08f5a00370032008000eb000a00780021
:1010b0003a140200000000004faa9400dfaa940036
:1010c0005fb39700efb39700840f5300858f5b00e9
:1010d0002c0039007fb397008fbb970000004300be
:1010e000e0804b005fb39700efb39700800f530091
:1010f000818f5b002300310004005300f0140200d4
:10110000000000000400280005002000b4b79f0084
:10111000c5b79f003fb29700cfb29700e04f520093
:101120000c003a000000e800c82bdd004822de0079
:1011300004827300c82ade00e04f520005003a0026
:101140000000e800c828dd004822de0004827000ac
:10115000c82ade0026002000a6b79f0004c2ea00cd
:1011600085cb2f008f82420000804200c062900039
:101170008542620045609800c062930004c262002c
:1011800044609b004fab9400dfab9400f6b79f0028
:1011900087bf9f008000eb000b0078003a1402002c
:1011a000000000004faa9400dfaa9400840f5400ae
:1011b000858f5c00100039007fb397008fbb9700cc
:1011c00000004300e0804b00800f5400818f5c00e2
:1011d0000900310004005400f01402000000000077
:1011e00087cb2f008f8343000080430000c2eb00b9
:1011f00044609800546098000b017800c1e52f000e
:101200008f804000c0cd2f000f0040008c140200e2
:1012100000000000e00f5000180032008b01780041
:10122000c2cd2f000f0141004fa89400dfa8940009
:10123000fe0b0200000000008b017800c2e52f00c9
:101240000f0141004fa89400dfa89400fe0b02009c
:10125000000000000b017800c1e52f008f804000e6
:10126000c0cd2f000f0040008c14020000000000d1
:10127000e00f500039003a007dff2f006fa8970063
:10128000ffa89700c0af9c00d1af9c00615bb80085
:101290004f989400df98940006025000878258000f
:1012a000c49f9c00d59f9c002fa89400bfa89400c9
:1012b0000603500087835800a6af9c00b7af9c0080
:1012c000e40f5200e08f5a00e7fe3e0001003700b5
:1012d0001d0020008c0178000001eb00410020007f
:1012e000c0fd2f000f004000f00c020000000000c5
:1012f000e40f50001b003a000fb297009fb2970016
:101300006fab9700ffab9700840f5300858f5b0096
:1013100016003a00d42c2100a4b79f00f03d200015
:101320006628b400230020007c8157000800be001e
:1013300066110200000000000d003700edff2f00d5
:101340000b003700ddff2f0009003700cdff2f0015
:1013500007003700bdff2f00050037008dff2f006d
:1013600003003700adff2f00010037009dff2f0065
:101370000d0078004f0778004f06be004f05be00f5
:101380004f04be00ef1fb100ef13b10000000600d4
:10139000e6874700889fbe008a9fbe008c9fbe00e4
:1013a0008e1f78000004be0010c22f006608e30004
:1013b000020032006628ef007f0037006628ef0049
:1013c000e00f5400e08f5c0011003a000080210023
:1013d00001002000f0b79f0081bf9f000005be0004
:1013e00044120200000000000000e00008003a0083
:1013f000f03d20006628b4000a00be006a13020017
:101400000000000018002000090020006a003700da
:10141000004020000000e9008000eb000080ea00ae
:101420008180ea000001640001806400800078008f
:10143000020078000004be0000c02a002100200045
:10144000f0b79f0081bf9f000005be00800f5400d1
:10145000818f5c0053003900000020000100200053
:10146000f0b79f0081bf9f000005be000000200074
:1014700001002000f0b79f0081bf9f007fb0970060
:101480008fb89700800f5400818f5c0045003100b9
:101490000004be00430037000c6020008c0178007f
:1014a0000001eb000800be00fe0b0200000000007f
:1014b000000778000d4020008c0f570037003100e6
:1014c0000800be0044120200000000000000e0001e
:1014d00032003a006168b800800f5400818f5c00d0
:1014e0001c003900f03d20006628b4000800be0052
:1014f0006a13020000000000e0bf2a002100200063
:10150000f0b79f0081bf9f000001be000e00e00009
:101510000c003a000d00e9008000eb000080ea00ba
:101520008180ea000002610001816100820178008f
:10153000040178000200be00800f5400818f5c001f
:1015400012003a000000eb00d00d02000000000085
:101550000e003700d81402000000000000057800db
:10156000f03d20006628b4000800be006a130200a7
:101570000000000010002000d00d0200000000005c
:101580000a00780030150200000000000040200032
:1015900008044000e0844c0007003700088446003f
:1015a000e0844c008a0f54008b8f5c00baff390036
:1015b0000084eb008084eb000800be004f07780039
:1015c0004f06be004f05be004f04be006f00b100c5
:1015d000000006000000fe0061e7af00feff3700dc
:1015e0003200f800070020000700e000270032006a
:1015f0000000880001008800a00f200090018800f2
:10160000870f20000708e100710032004d0037000d
:101610008600200002000900325b780091018800fa
:10162000e21f4000e09f4800870f20000708e1000c
:10163000040032008403780085c363008783ea00d6
:10164000110032000408bb000598bb00829fbe0059
:1016500030002400820f2000930180000310e1007d
:101660004220af00000024000081eb00513e20002a
:101670006608f8007e120200000000006608f9000b
:10168000800feb004f01be004f00be00e381510010
:10169000dfff3100e2814100070033000082eb00f0
:1016a0008082eb008600200003800900325b780016
:1016b0008001eb00d9ff37006628ef003200f90007
:1016c0000000060080002000050009003258780064
:1016d00085036200870363008783ea0015003200f8
:1016e0000000eb000408bb000598bb0086427800b0
:1016f0000580fd000508bb000680fd000698bb00c4
:10170000829fbe001000240060c7a80060c7af0021
:101710002080b2000081eb00513e20006608f800f6
:101720007e120200000000006608f900800feb0046
:101730004f01be00400020000020b4000000eb007c
:1017400000a0b400e6815100deff3100e5814100d8
:1017500007003300e00020000200090000a0eb00b9
:1017600003800900325878008001eb00d8ff370071
:101770006628ef003200f9000000800001008000c0
:1017800000000600800020000200090032587800a6
:101790000000eb000408bb0005c8bb00829fbe0030
:1017a000000024000081eb00513e20006608f80094
:1017b0007e120200000000006608f900800feb00b6
:1017c0004f01be0000a0ec000000eb0000a0b40040
:1017d000e3815100ebff3100e2814100e4ff33007f
:1017e000800020000082eb008082eb000380090073
:1017f000325878008001eb00e5ff3700f88747009a
:10180000889fbe008a9fbe008c9fbe008e1f7800fe
:101810000004be00b2b79f0003077800c1fd2f008f
:101820008f8040000e0078003a1402000000000093
:10183000efa897000100e000010032000080e800fe
:1018400008014000e0814c00c2b79f00d3b79f0061
:10185000c020200001002000f0af9f0081b79f0052
:101860000005be00b41402000000000080067800ed
:1018700062054500e0854d000006eb004f00370093
:101880000a00be00b4140200000000000001be0007
:1018900062004500e0804d00f2b79f00e3b79f0073
:1018a000b4140200000000000002be006405450000
:1018b000e0854d007fb19700efb197004fb39700df
:1018c000dfb39700820f5300838f5b003a0036002e
:1018d000800f5400818f5c0037003100bfb3970048
:1018e00087bf9f00880f5100898f59000e00360076
:1018f0000801510002007800e4b79f00f5b79f008f
:10190000f014020000000000000178003fb09700d2
:101910000200400080bf9f00020157006fb2970095
:10192000ffb29700010037000e0178004fb3970017
:10193000dfb39700860f5200878f5a0006003100f0
:1019400004005300f2b79f00f014020000000000f2
:101950007fb197000001510002064600bfb3970017
:101960000700e0001400320000f02f00f10f20000b
:1019700088016000098360006132b80094b79f005d
:10198000a5b79f00c022dd0004002000611bb80045
:10199000060272008782720006002000870f200076
:1019a000860f5200878f5a00030032000fb897004d
:1019b000cc140200000000008d06e9000d00e000dc
:1019c000afff3a000c0078004f0778004f06be00ca
:1019d0004f05be004f04be008f01b100000006009d
:1019e000ee874700889fbe008a9fbe008c9fbe0086
:1019f0008e1f7800c0b79f0001077800b2b79f0024
:101a00000305780028140200000000000004be0056
:101a10000b002000b44280000aa2b900a642800058
:101a20000655b8008b054200fa14020000000000c1
:101a3000000678002c150200000000000c06400093
:101a40000c06d100dcb79f000002eb0084bf9f00b2
:101a5000840f57004b0032008006eb00fdb79f005b
:101a60008d025700e5b79f00fa1402000000000045
:101a70007fb2970004065000efb29700850f560022
:101a800001003600050678005fb297008c0f520007
:101a9000050036000d0246008e0f520009003a0084
:101aa000e00f5600070032000c0078004c140200d2
:101ab00000000000ffb297008c824200f5b79f0043
:101ac0008c8646002c15020000000000e00f50003c
:101ad00008003a002814020000000000080250002c
:101ae00089825800840f5500858f5d00f5ff3e0008
:101af000240037008fba97000502570000067800cf
:101b0000840f560001003600040678008c0078002f
:101b10004fb0970010110200000000003fb2970084
:101b2000e00f5200070032008c0178004fb197009f
:101b30001400be000212020000000000bfb29700b5
:101b4000808abe000fba97000c02420084bf9f003b
:101b500028140200000000000004be008fba9700a5
:101b6000850f5700070032007fb297000c02520029
:101b7000f4b79f00cfb297008c824200c5b79f0098
:101b8000b7ff37000fb897004f0778004f06be0029
:101b90004f05be004f04be00ef00b100000006007c
:101ba0000f03b000889fbe008a9fbe008c9fbe00be
:101bb0008e1f7800e0b79f008021200001002000e8
:101bc000a0a79f00b1a79f000006be00b4140200aa
:101bd000000000000001780082bf9f0062064600fe
:101be000e0864e004a0037000c00be00b41402002c
:101bf000000000000004be0062064600e0864e00c1
:101c00000c00be00b4140200000000006206460092
:101c1000e0864e0008015000f2b79f0002007800f5
:101c2000f014020000000000000778004a022000c3
:101c30008005eb002e0037000b0045008e0f500092
:101c4000010036000b0557000a0278008b0078006f
:101c50000c01be0080fc2f000f004000b6110200f6
:101c60000000000000f02f00f10f200008026000cb
:101c70000981600082017800040178000200be0042
:101c800002002000830f2000820f5000838f580035
:101c90000d003a006628ef006fb097000000e000ea
:101ca00002003200f03d2000304388008a017800b5
:101cb00082fc2f000f0141000800be00ec0a020068
:101cc0000000000008003700f03d2000304388008d
:101cd0008a01780082fc2f000f0141000800be003d
:101ce00066110200000000000004be008a85450065
:101cf0008e8f5500d0ff39007fb197000c06410050
:101d0000e0864e000fb897000000e90080bf9f00fa
:101d10000fb997000200e000b3ff3a00121502006d
:101d2000000000004f0778004f06be004f05be00c0
:101d30004f04be000f03b100000006000a00fa00c5
:101d4000889fbe008a9fbe008c9fbe006044b80082
:101d500018438800294388001a150200000000007b
:101d600090478800a147880040130200000000004f
:101d70000801be0090478000a1478000b410020017
:101d80000000000028140200000000000005be0052
:101d90000002eb008447880088bf9f0099bf9f0026
:101da0000c0020000d002000040020006123b8007a
:101db000e6b79f00f7b79f0028140200000000005c
:101dc0000004be000fba97009fba970004035000aa
:101dd00085835800a0428000b1428000450add00a2
:101de000cb02de00850272004502dd00840f530045
:101df000858f5b0006003600120020000c00be003c
:101e0000ca1302000000000088bf9f0099bf9f0016
:101e10000060fe000a0454008b845c008442800051
:101e200095428000840f5400858f5c0016003600b8
:101e3000a6018000048021000500200004f0a40019
:101e40008582d200a501880014027800a6018800ce
:101e5000d52c2100850f52000b003a00f20f200014
:101e60006fb09700ffb09700ca1302000000000097
:101e70001400200084478800e803fc0008180200d2
:101e8000000000000000fe0010002000ae03020071
:101e90000000000000047800d8b79f003fea9700d8
:101ea000e04f520003003a00d0c2b3005c140200bd
:101eb0000000000004102000840f5400beff320018
:101ec00028140200000000000005be00baff370021
:101ed0000800fa00889fbe008a9fbe008c1f780011
:101ee0006220200003002000f2b79f0083bf9f0004
:101ef0000205be00e10f500003003a00c0202000a0
:101f00000100200004003700e20f500005003a00f5
:101f10002021200001002000f0b79f0081bf9f001a
:101f20000005be000a00be00b4140200000000005c
:101f3000000678006044b8001a00370062004500cf
:101f4000e0804d00b4140200000000000001be005b
:101f500064054500e0854d000a00be0092bf9f0069
:101f6000a3bf9f00b4140200000000001fb9970037
:101f7000afb997000200500083805800e4140200bb
:101f8000000000000002be001fb99700afb9970023
:101f90000800be0054100200000000000004be0053
:101fa0000c06e9000c00e000e4ff3a000800be0067
:101fb0004f0678004f05be004f04be000080fa00b7
:101fc00000000600e4874700889fbe008a9fbe008d
:101fd0008c9fbe008e1f780081bf9f000102780099
:101fe000e00f52002600320080057800840478005b
:101ff0008c8620008c86e8006e0746008500200055
:102000009c8f120003003a00100020009013020081
:10201000000000001d00780000055700850020002a
:102020001c8252000a047800840f5500010036001b
:1020300004047800890f5400010036000904780078
:10204000080178008b007800a00302000000000067
:10205000a186200091084400880f550002003a0034
:10206000e4862000840e78008186200091084400d8
:10207000888454000200320088854500dfff370065
:102080003322ab0001003a0087e0a8000fb89700a8
:102090004f0778004f06be004f05be004f04be003c
:1020a0004f00b100000006000802fa00889fbe0041
:1020b0008a9fbe008c1f78000004be000205be008f
:1020c0000403be000c202000180037000c0278002a
:1020d0008000eb000a01be00e0de2f000f00400090
:1020e00096bf9f00a7bf9f00b6110200000000002e
:1020f0008c017800e2de2f000f0141000800be00d5
:1021000002120200000000000004be004a15b000e8
:102110000b80b0001fbb9700afbb97007fb097004c
:102120008fb897000003530081835b006160b800a3
:10213000f0b79f0081bf9f00800f5300818f5b002d
:10214000e2ff3100060678000600e000f7ff3a00e3
:102150000800be004f0678004f05be004f04be00c9
:102160000080fa0000000600889fbe008a9fbe0023
:102170000005be000204be0097e0a90097c0a900b8
:102180000002eb0084118800e44388009c140200e4
:1021900000000000a8140200000000009405800068
:1021a00004c0a00004d0a10004e0a10094058800b0
:1021b00031e2a8003062a800e00f5400e08f5c001c
:1021c00002003a0030a2a8000c00370008004400ca
:1021d00089804c000000450081804d004249dd00af
:1021e000ce41de00830171004241dd008003020028
:1021f000000000000002e900c41188003342a8007a
:102200003222a90087c0a90087e0a90097c0a800d2
:1022100097e0a8004f05be004f04be000000060076
:10222000889fbe008a9fbe008c9fbe008e1f7800d4
:1022300001077800e00f57001d003200000678000b
:102240008e047800ab8720004d0620008b86460068
:102250001b855600090478008a8f5400010036005f
:102260000a047800080078006c14020000000000e6
:102270009b007800080178000c007800a0030200a1
:102280000000000008064600a187200091084400d5
:10229000880f550002003a00e4872000840d780082
:1022a000618720009108140088845400e8ff3a00f8
:1022b0000e0078004f0778004f06be004f05be00a5
:1022c0004f04be00000006000000fe00809fbe001c
:1022d0003200f800910188000300e0001f00320086
:1022e0000202be00060020000600e0004220ae0010
:1022f000360020006303430003003700060242005b
:1023000086825200150036008080eb0090c0ba0033
:10231000b003ba00818363006630e10004003a0034
:1023200090c0ba0081836300b000ba00818363006b
:102330000000e0004220af003220ec008783ea007a
:10234000eeff320000daeb008502e9000300320004
:102350000603e900fbff3a00e2ff37003200f90014
:102360004f00be00ec0a0400000000000400e00082
:1023700023003200800278006208b8003600200096
:10238000110009004688d800000141000380b00018
:102390009701800093018800610252000200a700ab
:1023a0000b0037000201e900610242000110a600a3
:1023b0000c0037000281e800925aba000482e9005a
:1023c0000e0039000200370001000900d25aba009d
:1023d000c2daba000201e8000203e8004220af00be
:1023e0003220ec0063025200f7ff3100620242002b
:1023f0000200330004800900d25aba009701880015
:10240000000006000080ea008180ea0085002000cc
:102410000632280087db2e0010003700b25a780001
:10242000b252780004006800840020008100d100ce
:102430000080d30002003900060068008780680031
:102440008100d1000080d30002003900060068003e
:10245000878068000402e900f4ff3a00e28151003d
:10246000eeff3b00e28141000400320012406800b0
:102470004400200003002000ecff37000080ea0049
:102480008180ea000000060092018000910188002e
:1024900003c02f0000806100032020000402200000
:1024a000040040000083eb008083eb000f00090074
:1024b000c01fba000f0009004f0363008682ea00c4
:1024c00009003a000f000900b09fba000f00090090
:1024d000cf83630087c2ea0003003a000400400093
:1024e000f0815100f1ff3a00920188004220af00d4
:1024f00010000500000005000000fe00130280002f
:10250000040e2000003b8800374380006628ef005f
:10251000013bb80061322100b709b0001402880005
:1025200081005300313b880000f0a600373b880053
:1025300061e7a80000000000000000000200a60003
:10254000130288008000eb008003eb000208a30068
:1025500061e7af00feff3a0061c7a90013028800df
:1025600000000600de08000010000000020000006d
:10257000455a42004c207600312e30003120550063
:102580004152540000000000ee0800000e00000060
:102590000000000068080000760000000000000055
:1025a000fc080000040000000000000050080000cb
:1025b0001200000000000000660800000200000099
:1025c00000000000000000000200fa0084862000e5
:1025d0008002eb00948f1200fdff3a0005102000ee
:1025e0009411800005026200fdff3a00c4118000d2
:1025f0004522dd00f4bf9f007fba9700e00f520034
:1026000006003200ffba97008502e900f5bf9f007f
:102610007fba9700e00f5200faff3a000080fa00fc
:1026200000000600889fbe000004be0080428800b3
:1026300091428800401fb0000180b000823e20001f
:10264000030020008003020000000000a042880078
:10265000b142880000122a007100200008004000ea
:102660008980480002242400f30020008003020037
:1026700000000000c04288004f04be0000000600b9
:1026800005a1a9000421a900240880000440a1009c
:102690000450a100240888000441a80002a1ef0012
:1026a000e0478800f14788002405800004c0a100ad
:1026b00004d0a10004e0a000240588009460a800d4
:1026c000121302000000000005e1a800000006004f
:1026d0000000fe0061e7af00feff370002002000af
:1026e0000200e00004003a0092018000910188009d
:1026f0000308bb00920188000000880001008800e8
:102700002004240060c7a80060c7ae001084b20097
:102710000081eb00513e20007e120400000000000a
:102720004443800068021200840f50000b00360002
:102730000620200085862000941180000602620099
:1027400001003a0087e0a8000140fe008700200059
:1027500015825300800f5200f7ff39000000060079
:102760000000fe006608f8006628ef00809fbe00ab
:10277000829fbe00fe0b0200000000004f01be0061
:102780004f00be006608f900800feb00ec0a040061
:1027900000000000f10fb200821f780001017000fc
:1027a0004f01780004003200809fbe000200be008e
:1027b0000401be000602be0000000600000020006a
:1027c0000000a7002000200092018000f10f2000ef
:1027d000910188009080ba001000ba009201880030
:1027e000000006000400fa00e0bf9f00f1bf9f0058
:1027f0004100200064805700e20f0200000000004a
:102800000080fa00000006000400fa00e0bf9f000c
:10281000f1bf9f003100200064805700e20f0200ea
:10282000000000000080fa0000000600801f780011
:102830008460a9005a28ec000000eb005ca8b400fa
:102840005ea8b40060a8b4004f0078000040060005
:1028500000088000d142800002088000d34280003e
:1028600000015100faff330083816800f8ff3a004d
:10287000000006000101780033002000110009006b
:102880000380d8000000d0000200e0004220ae002b
:1028900001097800000006000200fa00f0bf9f0066
:1028a000210020000f80e900e20f0200000000007c
:1028b0000080fa00000006000200fa00e0ff9f001e
:1028c000110020000f80e900e20f0200000000006c
:1028d0000080fa0000000600b4438000840f50001e
:1028e00004003600648720000140fe00940f1000b1
:1028f000fdff3900000006000200fa001100200070
:102900000f80e90010110200000000006ff897002e
:102910000080fa00000006008001eb000201e900df
:102920004200ae0000000500b0417800b1c169006e
:10293000faff320010000500e486200054438800ae
:102940006443880066025200000aeb0000000600a3
:10295000e4872000c4438800d44388006802520002
:10296000000aeb000000060092018000910188003f
:102970009080ba001000ba009201880000000600a2
:102980000200e000030032000201e90002800900b9
:1029900031587800000006000200e0000300320019
:1029a0000201e900028009000158780000000600d9
:1029b000000e2000120280008280ea004220b70050
:1029c00001006000000006000001be008100d1008f
:1029d0000080d30002004000838048000000060011
:1029e000000178000000d10002004000e000490032
:1029f00000000600b44380000006200004005000e0
:102a000000000600c48720001420a10030a2a80006
:102a100000000600801180004500de0061006000bb
:102a20000000060061e7af00feff370061c7a900a4
:102a300000000600e0478000f1478000000006002b
:102a400040438000680010000000060097c0a80006
:102a500097e0a80000000600b043800000000600d8
:102a600042a0b60000000600ffffff00ffffff00ce
:102a7000ffffff00ffffff00ffffff00ffffff0062
:102a8000ffffff00ffffff00ffffff00ffffff0052
:102a9000ffffff00ffffff00ffffff00ffffff0042
:102aa000ffffff00ffffff00ffffff00ffffff0032
:020000040000fa
:10300000cd12ff00ffffff00203c0000ffffff008c
:0830100020190400000000007b
:020000040000fa
:10301800f82c0400000000005e1e04000000000000
:10302800641e0400000000006a1e04000000000086
:10303800701e040000000000f82c040000000000ce
:10304800f82c040000000000f82c04000000000028
:10305800f82c040000000000f82c04000000000018
:10306800f82c040000000000f82c04000000000008
:10307800f82c040000000000f82c040000000000f8
:10308800b419040000000000f82c0400000000003f
:10309800f82c040000000000f82c040000000000d8
:1030a800061b0400000000009c1b04000000000038
:1030b800f41c040000000000f82c040000000000cc
:1030c800f82c040000000000f82c040000000000a8
:1030d8008c1c0400000000003a1c040000000000e2
:1030e800f82c040000000000f82c04000000000088
:1030f800f82c040000000000f82c04000000000078
:10310800f82c040000000000f82c04000000000067
:10311800e41d040000000000381b0400000000004b
:10312800e21b040000000000f82c0400000000006e
:10313800f82c040000000000f82c04000000000037
:10314800f82c040000000000f82c04000000000027
:10315800f82c040000000000f82c04000000000017
:10316800f82c040000000000f82c04000000000007
:10317800f82c040000000000f82c040000000000f7
:10318800f82c040000000000f82c040000000000e7
:103198002c1e040000000000f82c040000000000b1
:1031a800f82c040000000000f82c040000000000c7
:1031b800f82c040000000000f82c040000000000b7
:1031c8004a1e040000000000f82c04000000000063
:1031d800f82c0400000000006a1b04000000000036
:1031e800f82c040000000000f82c04000000000087
:1031f800f82c040000000000f82c04000000000077
:10320800281c040000000000f82c04000000000046
:10321800f82c040000000000f82c04000000000056
:10322800f82c040000000000f82c04000000000046
:08323800f82c04000000000066
:020000040000fa
:103240000fc223000e7f24000e0188000000000042
:1032500000012000200288000c000700c04c29005b
:103260000100200011000700000020000000e00025
:10327000020032000000020000000000da29020013
:10328000000000000040da000000fe004440a900f9
:10329000e01520000000e0000300320000002000e4
:1032a000a00188004440a8000000060091018800a9
:1032b000800078000000eb0015003700e28040003d
:1032c00032a0b4009101ba00e280400032a0b40004
:1032d0009102ba00e280400032a0b4000002eb008c
:1032e000472bde00f507b200602ce10004003a0035
:1032f0000059eb008301e900fdff3e0004003700a8
:103300006128e100010032000082eb0004000700a8
:103310001101ba000200e000e8ff3a0000000600d8
:103320003159ba008301e9000c0032002159ba007a
:103330008301e900080032000400e00003003a00c5
:10334000e280400032a0b400f5ff370011d9ba0086
:103350008301e900faff3a008100e800e1804000c3
:1033600032a0b400000006003600f800809fbe00c6
:10337000829fbe00849fbe00869fbe003400f8007e
:1033800000002000a00188000000fa0094e0a900dd
:1033900084e0a900e44980000402e800e4498800d0
:1033a0005448800061026200e00f520014003200b5
:1033b000e5498000044a8000848f520010003a00e2
:1033c000e4498000843eb000044a8800f44980004b
:1033d0000402e800f4498800f5498000344a80007e
:1033e000848f520006003a00644880000400a00068
:1033f00064488800544880000400a10054488800b4
:1034000004ca200014427800e14f520007003a003d
:10341000e44980006f026200e00f520002003a00af
:1034200002c2020000000000bc07070084952000d3
:1034300014427800e14f520008003a00e54980004c
:10344000f407200004826200e00f520003003a00fb
:10345000044880000470a0000448880094e0a8009c
:103460000080fa003400f9004f03be004f02be0096
:103470004f01be004f00be003600f90000400600bc
:103480000400fa0020aa02000000000070a9020057
:103490000000000000427800e04f52004e003a0069
:1034a0008ca9020000000000dca502000000000062
:1034b000faa9020000000000510037006ca70200ca
:1034c0000000000000027800040f780026a7020028
:1034d0000000000000427800244798001e02780097
:1034e000ae429000054a7800b4a50200000000003a
:1034f000000278009e0f52003e003600a494200087
:1035000014427800e14f52000b003a008ca50200f3
:1035100000000000000278009e0f52002b003a00cd
:103520001e0278009442780084c4b30084cf520015
:103530002600320032003700a494200014427800a4
:10354000e44f52000b003a008ca50200000000007e
:10355000000278009e0f52001c003a001e02780004
:103560009442780084c4b30084cf52001700320024
:1035700023003700a494200014427800e24f520048
:1035800012003a008ca50200000000000002780042
:103590009e0f520005003a001e0278009442780007
:1035a00004ccb30084cf520014003a001e0278000d
:1035b0009442780004ceb30084cf520003003a0056
:1035c00074a80200000000000d003700f0a7020000
:1035d000000000000100370000000000cca602003f
:1035e0000000000000427800e04f5200b3ff3a00b4
:1035f0000300370000000000010037000000000059
:10360000000000000080fa00000006003600f8000c
:10361000809fbe00829fbe00849fbe00869fbe002a
:103620003400f80000002000a00188000200fa0029
:1036300014932000144f78001593200014c0b30099
:10364000844a78008eff0700149320001e4a7800f9
:103650000080fa003400f9004f03be004f02be00a4
:103660004f01be004f00be003600f90000400600ca
:103670003600f800809fbe00829fbe00849fbe007f
:10368000869fbe003400f80000002000a0018800e2
:103690000200fa0014932000144f780015932000c4
:1036a00024c0b300844a780075ff070014932000fb
:1036b0001e4a78000080fa003400f9004f03be0073
:1036c0004f02be004f01be004f00be003600f900a1
:1036d000004006003600f800809fbe00829fbe00ba
:1036e000849fbe00869fbe003400f80000002000ca
:1036f000a00188000200fa0014932000144f780003
:103700001593200034c0b300844a78005cff0700a2
:10371000149320001e4a78000080fa003400f9005b
:103720004f03be004f02be004f01be004f00be005f
:103730003600f90000400600849fbe003400f80007
:1037400004002000a40188000000fa002504800085
:103750000400210004826200e00f520015003200d4
:10376000a4ca2000144278000442e900a5ca20003f
:10377000844a7800a4ca200014427800e04f520026
:1037800001003a009580a900151180000420200056
:1037900004826200e00f5200fbff3a0045658000a2
:1037a000154278000482fb00241188000502e8001d
:1037b000446588000080fa003400f9004f02be0022
:1037c00000400600849fbe003400f8000400200082
:1037d000a40188000000fa003504800004002800dd
:1037e00004826200e00f520015003200a4ca2000db
:1037f000144278000442e900a5ca2000844a7800f7
:10380000a4ca200014427800e04f520001003a00a0
:1038100097e0a90095118000042020000482620036
:10382000e00f5200fbff3a0045658000154278002a
:103830000482fb00a41188000502e80044658800aa
:103840000080fa003400f9004f02be00004006007c
:103850003400f800881f780008002000a8018800c4
:103860004f0478000000fa000080fa003400f900ec
:10387000004006003600f800809fbe00829fbe0018
:10388000849fbe00869fbe003400f8000000200028
:10389000a00188000000fa008680a9009680a90097
:1038a0003448800064026200e00f520003003200de
:1038b000100020002c4802000100000004952000a8
:1038c000144278000482fb00610262000442780026
:1038d000e04f520006003200d591200014c0b30022
:1038e000844a7800559220000042eb00844a780018
:1038f000e2150200010000000080fa003400f90027
:103900004f03be004f02be004f01be004f00be007d
:103910003600f900004006003600f800809fbe0027
:10392000829fbe00849fbe00869fbe003400f800c8
:1039300000002000a00188000000fa008660a900b5
:103940005416800068026200e00f52001e003a0028
:10395000f262a900144880000410a00014488800f6
:10396000e590200044c0b300844a7800f590200020
:1039700014c0b300844a78001e2802000100000031
:103980008591200014c0b300844a7800e549800086
:103990000453270004824200244a880034488000ef
:1039a00062026200e00f520003003a0024488000e7
:1039b0000410a00024488800f262a90005ca200073
:1039c00014c0b300844a78000080fa003400f90083
:1039d0004f03be004f02be004f01be004f00be00ad
:1039e0003600f900004006003600f800809fbe0057
:1039f000829fbe00849fbe00869fbe000400fa0026
:103a000085a0a900e490200014427800e44f520001
:103a100063003200041880001407980021e3a90015
:103a200013e1a900f490200014427800e04f520006
:103a300029003a000042eb00044f78001a003700da
:103a40009e4278000582fb0084024200449d2200d1
:103a50000482420014027800840278001e02900062
:103a6000850078000400780006e0020000000000f5
:103a70000002780005022000850f520009003c007a
:103a80001e42e800e5902000844a7800f49020006f
:103a9000144278000442e800f5902000844a78003f
:103aa000420037001e4fe8001e427800e24f5200ed
:103ab000e3ff3600e590200054c0b300844a78004c
:103ac000f4902000144278000442e800f5902000b1
:103ad000844a780035003700e490200014427800d2
:103ae000e04f520031003200e49020001442780090
:103af000e54f520006003a00f4902000144278008e
:103b00000442e800f5902000844a7800270037003e
:103b1000e4902000144278000482fb000402e900d3
:103b200084024200449d2200048242001402780074
:103b3000840278001e02900085007800040078005e
:103b400006e00200000000000002780005022000ec
:103b5000850f52000a003c00f490200014427800c7
:103b6000e04f520010003a00f49020001442780018
:103b70000442e800f5902000844a78000b003700ea
:103b8000e59020000042eb00844a7800f590200088
:103b90000042eb00844a7800000000000300370078
:103ba0000000000001003700000000000080fa0063
:103bb0004f03be004f02be004f01be004f00be00cb
:103bc0003600f900004006003600f800809fbe0075
:103bd000829fbe00849fbe00869fbe003400f80016
:103be00000002000a00188000000fa0035048000d9
:103bf0000400220004826200e00f52000e00320036
:103c000087a0a90086ea02000000000004488000a6
:103c10000400a0000448880002ed0200000000003b
:103c200000427800e04f520003003200e59120008e
:103c300014c0b300844a78000080fa003400f90010
:103c40004f03be004f02be004f01be004f00be003a
:103c50003600f90000400600849fbe003400f800e2
:103c600004002000a40188000000fa005504800030
:103c70000402200004826200e00f520001003200c2
:103c80008aa0a9000080fa003400f9004f02be00ab
:103c9000004006003400f800881f7800080020006b
:103ca000a80188004f0478000000fa008d00a900e8
:103cb0000080fa003400f900004006000000fa001d
:103cc0008020a900ffff37000000fa008060a900f3
:103cd000ffff37000000fa008040a900ffff370017
:103ce0000000fa008080a900ffff37000000fa0002
:103cf0000000000001003700000000007ea6020066
:103d00000000000000427800e04f5200faff32004d
:103d10009ea902000000000006a6020000000000ac
:103d200068a502000000000020aa020000000000b8
:103d30003ca8020000000000800c2000fade020017
:103d4000000000000080fa00000006000200fa00f7
:103d5000004f78009e4278000582fb00e20f52007f
:103d60000e003200f50f2000850f520003003200d4
:103d7000e10f5200060032000b003700c922a900f3
:103d8000cb22a800c902a800cb02a8000600370079
:103d9000d8c2a900dac2a80003003700d8c2a9001f
:103da000dac2a800000000000080fa00000006004f
:103db0000600fa0010079800414798000042eb0007
:103dc000044f7800110037001e427800e04f520087
:103dd00007003a009e02900014c4b300844a7800a1
:103de0001e0290000402e800140798000600370045
:103df0009e02900004c4b300844a78001e02900022
:103e00000402e800140798001e4fe8004e4290009c
:103e10009e42780084cf5200ebff39000080fa0008
:103e2000000006001a00fa0040579800310f980071
:103e3000025f9800135f9800630247000041eb00a7
:103e4000010120000400780052df020000000000a1
:103e50004e509000dc000700a0002000fade0200b7
:103e60000000000084c4b30034479800f4c1b300dc
:103e70004447980074c1b300244f98006302470080
:103e8000e10120000400780042de02000000000092
:103e900000027800040f78001e02780004427800c7
:103ea000146798001e0278004822de000442780061
:103eb000246798000e5a90008483fb004e429000c5
:103ec0008442e800630347001e5a9000870178008f
:103ed0003e0990008540780006007800e03d020031
:103ee0000100000000427800244798002e42900014
:103ef000e14f520002003a003e52900001003700ac
:103f000000c2eb00044078000080fa0000000600c8
:103f10001600fa000042eb00044f78000042eb006c
:103f200014479800220037001e407800ece402009d
:103f30000000000000027800140798001e029000a4
:103f40002402b000351d220065437a0046479800e0
:103f50004e429000f443b200444798004e42900015
:103f6000e04f52000b0032008ae90200000000001e
:103f700000427800e04f5200060032006502470020
:103f800013c0b30002c1b300840078001e40780063
:103f9000a4ff0700ce4290001e42900084cf520042
:103fa000020036004e429000144798001e4fe80071
:103fb000941d2200144278009e4f5200daff3e000a
:103fc0001e429000044078000080fa0000000600c5
:103fd0000000fa00d8c2a900dac2a8000080fa00e6
:103fe000000006000000fa0034488000620262000f
:103ff000e00f520002003a00d8c2a900dac2a900bc
:104000000080fa00000006000000fa0014c0b300af
:10401000044078000080fa00000006000600fa0064
:104020006ca702000000000000027800040f780076
:104030008ca5020000000000000278001407980020
:10404000054880000402200004826200e00f520054
:10405000310032001e0290000402e8001442780091
:104060008482fb001e0290000482e8001442780063
:104070000482fb004822dd00048242000402e800c2
:104080009e02900004824200240798002e029000b5
:104090009e027800848f5200020031000042eb0043
:1040a0004200370074a80200000000001e029000c9
:1040b0000402e800144278008482fb001e02900093
:1040c0000482e800144278000482fb004822dd00ec
:1040d000048242001402b100840278001e029000a3
:1040e0000402b000850078000400780076de02004b
:1040f0000000000000427800e04f52000200320051
:1041000044c0b3002900370074a80200000000007a
:1041100024c0b300250037001e0290000402b00046
:104120009e0f520020003e00e10120001e00900082
:1041300076de02000000000000427800e04f5200ee
:10414000150032001e0290000402e80014427800bc
:104150008482fb001e0290000482e8001442780072
:104160000482fb004822dd0004824200ff0f52005f
:1041700004003a0074a802000000000044c0b3002c
:104180000a003700044880000450a000044888005a
:104190000042eb000500370074a802000000000098
:1041a00024c0b300010037000042eb000440780057
:1041b0000080fa00000006000200fa00004f7800bc
:1041c0000080fa00000006000200fa00004f7800ac
:1041d0001e407800f8ff07001e427800e04f5200b2
:1041e000130032001e427800e14f520009003200f5
:1041f0001e427800e24f5200060032001e42780054
:10420000e34f5200030032001e427800e44f520098
:1042100003003a00d8c2a900dac2a800050037009e
:1042200020c0b300a8e90200000000000100370030
:10423000000000000080fa00000006001400fa00f0
:10424000205798000002eb00040f98000e0a90001f
:104250000400a100040f98000e0a90000410a100b1
:10426000040f98008ca502000000000000027800f6
:10427000040f78001e0278009442780084c4b300d2
:1042800084cf5200020032000042eb008100370070
:10429000c01d220004de0200000000000002be007b
:1042a00014079800250798009e0278006382420058
:1042b0000400780004de0200000000000002be00de
:1042c00034079800450798000082eb008082eb00dd
:1042d00034079800450798003e039000ce039000f5
:1042e0000082eb008082eb00840f5300858f5b001f
:1042f000070032003e039000ce0390001e029000a3
:10430000ae029000840f5300858f5b0060003a007e
:104310009e02780067824200144278000482fb000b
:104320006123b90004ff2f00f5ff2f0006024200b1
:1043300087824a006600200007002000860f520096
:10434000878f5a004f003e000460010006003700ce
:1043500042003700280037004a0037004900370084
:1043600048003700410037009e0278006782420013
:1043700014427800f04f52001c003a009e02780070
:1043800074824200144278006f426200244f980009
:1043900064c0b300344f98002e4a90000482fb00a2
:1043a0004422dd00844278003e4a900004c272003c
:1043b000444f9800659220000042eb00844a780048
:1043c0000e0a9000840078004e4890004cda0200fb
:1043d0000000000000427800544f98005e4a9000b0
:1043e000e14f4200f6ff32002900370014c0b3004d
:1043f000644f980026003700b40480004422de0099
:1044000061426200744f98009680a9009e00780077
:1044100020c0b3009e7f0200000000000042780030
:10442000644f98007e4a9000614262000482fb0063
:10443000610262004422dd00b6048000f5fe2f0018
:104440008502630004827200b40488006e48900004
:1044500013000700004278000e00370020c0b300b0
:10446000d477020000000000090037000502200098
:104470001e82420004007800d66b0200000000009b
:104480000300370030c0b300a8e9020000000000bc
:1044900014c0b300044078000080fa000000060059
:1044a0000200fa00004f78002029020001000000fd
:1044b0001e427800eb4f520008003a00a09d2200f7
:1044c00016e702000000000010c0b300e4de0200a6
:1044d000000000000042eb00230037001e4278007d
:1044e000e14f520004003a00509f220016e70200fc
:1044f0000000000003003700e0a0220016e70200e1
:104500000000000072a2220011c0b3000040eb00c6
:10451000682a02000100000086ab020000000000d3
:1045200000427800e14f520006003a0002a4220047
:1045300011c0b3000040eb00682a02000100000037
:104540000500370092a5220011c0b3000040eb0027
:10455000682a02000100000050c0b300e4de02003f
:1045600000000000a4c0b300044078000080fa00fe
:10457000000006000400fa00000f780021479800b0
:104580000002eb00040078000080fa000000060042
:104590000400fa00000f7800214798000002eb00a9
:1045a000040078000080fa00000006000400fa0011
:1045b000000f7800214798000002eb00040078000b
:1045c0000080fa00000006000200fa00004f7800a8
:1045d0009e4278000582fb006123b9000082eb0057
:1045e0008082eb000602420087824a0066002000bb
:1045f00007002000860f5200878f5a0012003e00ed
:104600000460010006003700070037000a00370089
:10461000070037000c0037000b0037000800370098
:1046200014c0b3000c00370014c0b3000a003700f8
:1046300014c0b3000800370014c0b30006003700f0
:1046400014c0b3000400370060c0b300a8e9020042
:104650000000000014c0b300044078000080fa009d
:10466000000006000200fa00004f7800dca50200fe
:10467000000000009e4278000582fb00cfa2de0011
:104680008600200007002000860f5200878f5a0006
:1046900047003e0004600100080037003600370084
:1046a0000b003700120037001900370018003700e0
:1046b00017003700380037002a00370000b0240008
:1046c000010020004ea40200000000003f0037005f
:1046d00000b02400010020004ea4020000000000f1
:1046e00020c5b300c2a3020000000000370037005d
:1046f000c0122000010020004ea4020000000000b3
:1047000020c5b300c2a30200000000002f00370044
:1047100014932000144278000482fb00759320005b
:1047200065427a00e04f520025003a0014932000c1
:10473000144278000440780092af020000000000ac
:1047400014932000144278000482fb00759320002b
:1047500065427a00e04f52001b003a000042eb0035
:104760001b00370000582200010020004ea4020068
:10477000000000001500370000b0240001002000f8
:104780004ea402000000000020c5b300c2a3020036
:10479000000000000d003700d8c2a900dac2a8004e
:1047a00020c0b300e4de0200000000000700370074
:1047b00070c0b300a8e90200000000000300370049
:1047c00000000000010037000000000014c0b3002a
:1047d000044078000080fa00000006000400fa009f
:1047e000b494200014427800e24f520002003a00d4
:1047f000560007003600370044c0b300044f78006d
:104800001e427800ef4f5200160032009e427800a0
:104810000582fb00e40f520002003200e60f520056
:1048200012003a005eaf0200000000000042780073
:10483000e14f520005003a00149320001442780022
:104840000440780028000700090037004c5f020090
:104850000000000010c0b300e4de02000000000011
:1048600003003700000000000100370000000000d6
:1048700044922000144278008482fb0006912000bc
:104880000042eb0004f37a0045922000a4c0b3007c
:10489000844a780015fd07009402800014079800f0
:1048a000ff3ffc00140280000450a1000460a1003e
:1048b0000470a100140288001e0290009402880077
:1048c00000008800658420000042eb00844a7800e4
:1048d0000080fa00000006000000fa001b0007003c
:1048e0000080fa00000006000200fa00004f780085
:1048f00014c0b300044078000080fa0000000600f5
:104900000200fa00004f78001e427800ea4f520081
:1049100002003600a4c0b300044f78001e427800a5
:10492000e04f520004003a00544880000400a10007
:1049300054488800030037001e407800e4de02007f
:10494000000000000080fa00000006000800fa00e5
:10495000d8c2a900dac2a8004800070000427800c7
:10496000e14f52002a00320024c0b300044f780007
:1049700020c5b300c2a302000000000011c0b300b4
:10498000409c2000d4a40200000000000002780037
:10499000140798000060fe001e009000baaa0200f2
:1049a0000000000000427800444798004e4290000a
:1049b000e04f5200f7ff320074a802000000000030
:1049c0004e429000e14f5200120032004e429000e1
:1049d000e24f52000f0032004e429000e44f52006e
:1049e0000c003a001e40780014fe070000427800d8
:1049f000444798004e429000ea4f520005003a00aa
:104a0000a0c5b300a8e902000000000001003700c3
:104a10000000000044922000144278008482fb00d1
:104a2000069120000042eb0004f37a00459220003a
:104a3000a4c0b300844a7800acfc07009402800054
:104a400034079800ff3ffc00140280000450a100ce
:104a50000460a1000470a100140288003e029000ce
:104a60009402880000008800658420000042eb006a
:104a7000844a78000080fa00000006000000fa0076
:104a800020002000fade0200000000001493200045
:104a900014427800e14f520007003a00551680009a
:104aa0000410200004826200e00f52000d003a0062
:104ab00014c0b3000c003700149320001442780097
:104ac000e24f520007003a009517800004082000ca
:104ad00004826200e00f520002003a0014c0b300ea
:104ae000010037000042eb00044078000080fa002b
:104af000000006000000fa000080fa000000060036
:104b00000000fa000080fa00000006000400fa002d
:104b1000c822a800c802a800ca22a800ca02a80089
:104b200094028000040f7800ff3ffc001402800014
:104b30000450a0000460a0000470a00014028800cb
:104b40001e0278009402880000008800658420001e
:104b500074c0b300844a7800d882a900da82a80021
:104b6000d8c2a900dac2a9003e2802000100000054
:104b70000000eb002c4802000100000010c0b30050
:104b8000e4de020000000000940280001407980098
:104b9000ff3ffc00140280000450a1000460a1004b
:104ba0000470a100140288001e0290009402880084
:104bb00000008800658420000042eb00844a7800f1
:104bc000b1e2a900c822a900c802a900010037006b
:104bd000ca22a9005416800062026200e00f52004f
:104be000fbff3a00ca02a9000080fa00000006009c
:104bf0000c00fa0004aa8100040f780024b0200001
:104c000004aa89001448800068026200e00f520084
:104c10000500320021a722000040eb00d8cc0200a2
:104c2000000000001000370001a822000040eb0047
:104c3000d8cc0200000000008e82e800049620001c
:104c400014427800850078000440780040e10200ba
:104c5000000000000e82e8008400780010c0b3005d
:104c6000d8cc02000000000056c402000000000082
:104c70001e02780004aa890010c0b300e4de02001e
:104c8000000000000080fa00000006000200fa00a8
:104c90009560a80097c0a800d49420001442780022
:104ca000e04f5200010032009680a8009d00a8004d
:104cb00094028000040f7800ff3ffc001402800083
:104cc0000450a1000460a1000470a1001402880037
:104cd0001e0278009402880000008800658420008d
:104ce0000042eb00844a78000080fa0000000600d1
:104cf0000c00fa0044082200040f7800941f2200e0
:104d000034079800941f2200144278009e02780015
:104d1000844a78001e0fe80014c0b300344798009e
:104d20000f0037003e029000144278000482fb001e
:104d30004622dd0066024200351d220065427a00ef
:104d40009e027800844a78001e027800340798009a
:104d50001e0fe8003e4290000442e80034479800ed
:104d6000941d2200944278003e42900084cf52006d
:104d7000ecff3e00941d220094427800054f9800fd
:104d80000e4a90008482fb00240c2200048f420013
:104d90000e4b9000264798000042eb0034479800e5
:104da0003d0037003e4290000482fb00250c2200ab
:104db0002e43900086727a003e4290000482fb00ef
:104dc0004508220065427a000482fb004622dd008d
:104dd00065024200351d220065437a00164f980097
:104de0003e4290000482fb004508220065427a00a2
:104df0000482fb004622dd000402e800351d22008b
:104e000065437a00264f98003e4290000482fb00e2
:104e100045082200e5427a002e4a900004c2420072
:104e2000544798000042eb004447980013003700b5
:104e30001e027800de429000054a78001e0fe8004e
:104e40005e4290000482fb004622dd000402e8007e
:104e5000351d220065427a00de42900004c2420005
:104e6000544798002e4290000442e80024479800de
:104e70004e4290000442e80044479800ce42900021
:104e80001e4a900084cf5200e9ff39003e42900054
:104e90000442e80034479800be4290000e4a900059
:104ea00084cf5200bfff39000080fa0000000600e6
:104eb000ca00fa0040a79800040c200024079800bc
:104ec000680247002e019000311d22000400780086
:104ed000a0030200000000008100200010c0b30009
:104ee0002ce702000000000000427800044f780028
:104ef00004c2b3009e42780084cf52000200360004
:104f000004c2b300044f78001e427800e34f520001
:104f100023003600341d2200140798000002eb0025
:104f2000340798000042eb00144798001200370045
:104f30000060fe004ea290006123b800040420002f
:104f40009e0090000601be0010c0b30010330200a6
:104f5000010000004ea290000404b00044a7980095
:104f60001e0290000404b000140798001e42900036
:104f70000442e800144798001e4290009e4f5200e1
:104f8000ebff3900301d22001000070000427800be
:104f9000e04f52000300320014c0b3000800370095
:104fa00000000000680247002e0190008400780095
:104fb000301d2200a0030200000000000042eb00b0
:104fc000044078000080fa00000006000a00fa00a1
:104fd000400798004e029000e403b000944278002d
:104fe000554798004e029000f403b00094427800b8
:104ff000654798004e029000680242009442780093
:1050000045479800ce42900004c2b30084cf5200be
:105010000200360004c2b300444798004e4290009c
:10502000e24f520002003e000042eb003000370029
:105030000002eb00140798000002eb00040f780058
:1050400012003700e40320009e027800848f520093
:105050000a003200f40320009e027800848f520080
:10506000060032004e029000144278000482fb00d9
:105070009e02900004824200140798004e029000a5
:105080000402e800440798001e0fe8004e4290001a
:105090000482fb004622dd009e0f5200e9ff3e0025
:1050a0001e0290000482ea008582ea00140798003c
:1050b0001e029000844278005e42900084cf52002d
:1050c000020032000042eb00090037001e0290008f
:1050d0004822de00844278006e42900084cf520065
:1050e000020032000042eb000100370014c0b300a0
:1050f000044078000080fa00000006000000fa007a
:105100004650020001000000d882a900da82a800ff
:10511000d8c2a900dac2a9000080fa000000060087
:105120000200fa000042eb00044f7800b491200026
:10513000144278001e4f7200c4912000144278007f
:105140001e4f7200d4912000144278001e4f72004e
:10515000e4912000144278001e4f720074912000e8
:10516000144278001e4f720084912000144278008f
:105170001e4f720094912000144278001e4f72005e
:105180001e427800e04f52000200320014c0b3000b
:10519000010037000042eb00044078000080fa0074
:1051a000000006000200fa004592200034c1b3005e
:1051b000844a7800f042a900f242a8007e30020042
:1051c0000100000000c0eb00e0fa07001ac2020074
:1051d000000000004dfe0700acfe070020e2a80022
:1051e00030e2a8000002eb00043a88004087a900e2
:1051f00064c4b300044f78000060fe00f042a900d0
:10520000f242a800c6ff070000427800e04f5200bb
:1052100017003a000040fe00043a8000700262006d
:10522000e00f5200100032004087a9000060fe002d
:105230001e4fe9001e427800e04f520003003a0082
:10524000c0c0b300a8e9020000000000f042a900bd
:10525000f242a9004006200012df02000000000018
:105260008afe0700e4ff37000060fe0001003700ff
:10527000000000006630020001000000f84a020051
:1052800001000000a04f020001000000f042a90050
:10529000f242a9001448800062026200e00f52004e
:1052a00019003200144880000410a100144888003e
:1052b0001e28020001000000462b02000100000031
:1052c0000042780075952000844a78002029020069
:1052d00001000000d42b02000100000044962000d1
:1052e00004aa890005ca200014c0b300844a7800cb
:1052f000044880000400a000044888008595200030
:1053000014c0b300844a780045922000a4c0b300c2
:10531000844a78000080fa00000006000000fa00cd
:105320002cc2020000000000d49420001442780037
:10533000e04f52001d0032003448800061026200dc
:10534000e00f52000c00320004488000610262004d
:10535000e00f52000500320056c4020000000000b9
:10536000044880000400a100044888001ac102001b
:10537000000000000d003700882802000100000036
:10538000c429020001000000759520000042eb00d6
:10539000844a7800859520000042eb00844a78001a
:1053a000859120000042eb00844a78000080fa00da
:1053b000000006000600fa0094028000040f780046
:1053c000ff3ffc00140280000450a0000460a00015
:1053d0000470a000140288001e0278009402880065
:1053e000000088006584200074c0b300844a7800ff
:1053f000e4ca200064658800844d2100b4a68800ba
:1054000024d0210004e88800a62f0200010000003b
:10541000902f0200010000003e2f0200010000005a
:105420008830020001000000f042a900f242a90009
:10543000059020000042eb00844a7800259020006f
:105440000042eb00844a7800459020000042eb00c7
:10545000844a7800a59020000042eb00844a78003e
:10546000c59020000042eb00844a780010c0b300d1
:10547000fee802000000000010c0b300e4de0200fd
:10548000000000001dff0700043a80006102620076
:10549000e00f520004003200144880000430a100e4
:1054a0001448880005003700144880000430a0002c
:1054b00014488800010037004007a900043a800022
:1054c00061026200e00f5200fbff3a00400620003c
:1054d000fade0200000000000000240074fe070055
:1054e00000427800d5942000844a7800d4942000ab
:1054f00014427800e04f520008003a0001002400f6
:10550000301d22004e830200000000008000eb00ee
:10551000301d22004e83020000000000f4fd070051
:1055200010c0b300c23302000100000020c0b3006d
:10553000c233020001000000941d220014427800d2
:10554000e04f520004003200941d22001442780003
:10555000ea4f520003003600951d22000042eb0086
:10556000844a780042b0020000000000b0c0b300de
:1055700034cf0200000000000002780014427800de
:1055800005952000844a78000041eb00410020008e
:105590002093200052df0200000000001448800029
:1055a0000420a10014488800759320000042eb00fd
:1055b000844a7800859320000042eb00844a7800fa
:1055c000959320000042eb00844a78001595200056
:1055d0000042eb00844a780000c4b30034cf0200dc
:1055e0000000000000027800744a8800744a8000bd
:1055f000c1a8220004007800b8e902000000000001
:1056000000027800744a8800b594200014c0b300ea
:10561000844a7800344880000400a100344888009f
:10562000a41f2200144278000482fb006202620080
:10563000e00f520003003200344880000400a00054
:1056400034488800659520000042eb00844a7800c9
:105650003448800061026200e00f520027003200ef
:10566000d4c1020000000000d42b020001000000a1
:10567000e44980004822de0024479800e549800084
:105680000453270004824200244a880041962000e7
:105690000040eb00cac202000000000031a320005d
:1056a00010c0b300cac202000000000021b02000f8
:1056b00020c0b300cac202000000000011bd2000db
:1056c00030c0b300cac202000000000044962000af
:1056d00004aa890005ca20000042eb00844a780031
:1056e000044880000400a00004488800859520003c
:1056f0000042eb00844a78003dfd0700f590200051
:105700000042eb00844a7800e59020000042eb0064
:10571000844a7800450422000042eb00844a780065
:10572000550422000042eb00844a780064ea02003b
:105730000000000087a0a90097a0a8000041eb008e
:10574000e10320006004220052df0200000000009c
:10575000259520000042eb00844a78003448800000
:105760000420a10034488800841d220014427800df
:105770000482fb006102620004427800e04f5200a4
:1057800003003200344880000420a0003448880020
:10579000344880000420a1003448880040030200ff
:1057a00001000000059620000042eb00844a7800ca
:1057b00080502000ace7020000000000c844020056
:1057c0000100000066300200010000009680a90080
:1057d0001e0f0200010000009680a8000041eb00af
:1057e000410120000091200052df02000000000073
:1057f0000002eb00043a880094028000240798001d
:10580000ff3ffc00140280000450a1000460a100ce
:105810000470a100140288002e02900094028800f7
:1058200000008800658420000042eb00844a780074
:10583000ee520200010000000100370000000000ed
:105840007ef6020000000000e4912000144278007f
:10585000e04f520003003200e59120000042eb00cf
:10586000844a7800b491200014427800e04f52003e
:105870000f003200d491200014427800e04f520013
:105880000b003a00e491200014427800e04f5200ef
:1058900007003a0045922000b4c0b300844a780063
:1058a0001593200014c0b300844a7800cbfb070096
:1058b000c491200014427800e04f52000f003200e3
:1058c000d491200014427800e04f52000b003a00bf
:1058d000e491200014427800e04f520007003a00a3
:1058e00045922000c4c0b300844a7800159320007c
:1058f00024c0b300844a7800f7fb070074912000ad
:1059000014427800e04f520003003200a0c0b30000
:10591000d4ce020000000000244a80000400780079
:1059200032e502000000000000427800e14f520022
:1059300006003a00859120000042eb00844a78007e
:10594000759120000042eb00844a7800f4fd0700c6
:1059500000427800e04f520001003a0011fe0700bb
:1059600004952000144278000482fb00610262006a
:1059700004427800e04f52000e003200d494200020
:1059800014427800e04f52000a003200d491200007
:1059900014427800e04f520004003a00e4912000e5
:1059a00014427800e04f52000200320070cf020033
:1059b000000000000060fe006508800024b32200a3
:1059c000848f520005003a0085088000f40f200003
:1059d00004826200e00f520098ff320000000000d5
:1059e000b0c0b300a8e902000000000094ff370037
:1059f0000040da000000fe001004b100070035008e
:105a00009001b100040034007000b10003003500c3
:105a10009001b10001003c001000050000000500ed
:105a20006900e100040035006d00e100030034006e
:105a30000002b10001003200000005001000050066
:105a40001004b100030035009001b10001003c00da
:105a500010000500000005000003b1000b00350038
:105a60009000b100080034008000b100070035004c
:105a70005000b10004003400b001b1000300350053
:105a80005000b10001003c001000050000000500be
:105a9000800078001104b100030035009101b100cd
:105aa00001003c000050a0000000060003f0a2002e
:105ab000889fbe008a9fbe008c1f7800d60007001a
:105ac000dd0033006450e1004f0032006420e1004b
:105ad0005200320003826c0007003b000905d00031
:105ae0000306d000820f54000c065d00020039004e
:105af0000200320089017800030678008582550093
:105b000004003d000003fd008103fd008502ea0062
:105b10008b854200840f720002003b006000100081
:105b2000e08018006011b8000005eb007a28e10061
:105b30000a00390006007800c75ddd00f707b200f3
:105b4000878075002d003700828171000a0178007e
:105b5000610560008180d1000080d3008502e900ea
:105b6000f9ff3b00060440008784480002003b0028
:105b700060041400e0841c000988a30007003200c0
:105b80008a81710082817100610164008904d10001
:105b90000884d3008b05e800170037000978a300bc
:105ba00013003a000b00e000130034008b05e900fd
:105bb0000804440089844c000a4474000978a30056
:105bc0000d003a000b00e000070034008b05e900ef
:105bd0000804440089844c0001003a000b002000b6
:105be0000978a300f7ff32000001eb000200370044
:105bf000828171000a0178004c0007000cf0a700b8
:105c000001f0a000950037006420e10002003a0096
:105c1000838f6c00950033000801be000200be00b7
:105c20008e00370014002000d9003700f4ff2f0049
:105c3000d70037000001be00620007000470a70013
:105c400003f0a1006509b100160032000d00350017
:105c50006828e10006003500f0ff2f00f1ff270063
:105c60000300e00013003b000100280000000500d5
:105c700000004000818048008502e900fcff3a00f6
:105c800008003700f88f420002003c008000eb0063
:105c9000000005008100d1000080d3008502e800eb
:105ca000fcff3a000300e00002003b00600010002f
:105cb000e0801800000006000001be00410007005f
:105cc0000470a70003f0a10003f8a30013003a003a
:105cd0006509b10010003200090035006928e100b3
:105ce000020035000100280000000500000040000f
:105cf000818048008502e900fcff3a0000000600b0
:105d0000f88f4200050035008100d1000080d300eb
:105d10008502e800fcff3a00000006008000eb006e
:105d2000000005006011b800b400370081002000b9
:105d3000618055000b003d000b00200061fe2f002c
:105d40000100e1001d0034008281710061016400e6
:105d50008904d1000884d3000000e800faff3a006b
:105d60007100200061006400030070000200600008
:105d70000900320061044400e0844c000988a50059
:105d8000050032008b05e8006808e10002003a00d7
:105d90008904d1000884d300f20f20000258e100ea
:105da00005003d00c75ddd00f907b2008980750080
:105db00008007800000006000bf827008b00780030
:105dc00000000500c70ade00f107b200f50fb200bf
:105dd00008003200e1cf4200020032000170a00052
:105de00024000500810f7000010032000408050046
:105df00044000500810f700002003a001400050005
:105e00008502e9000000400081c04800fcff3b0023
:105e10000170a000240005000004be00e9ff070097
:105e20000003be000405be000200be00e5ff07003f
:105e3000844f7500000006000200be006450e100bf
:105e4000050036006420e100020036000968a30066
:105e500001003a000800be000160a0004f06780073
:105e60004f05be004f04be0000000600f0ff2f00eb
:105e7000f1ff2700f9ff3700811f78000100e000e3
:105e800002003d0060001000e08018000300e00008
:105e900002003d0060011100e08119003900070097
:105ea0004f00e00002003b0060001000e08018009e
:105eb00000000600889fbe008a9fbe008c1f7800ed
:105ec000d5ff0700dcff330003866c006450e1005f
:105ed000240032006420e100270032006150e1001c
:105ee000220032006120e100210032008b85420057
:105ef000eb07b1000134b800003ab80008044200d2
:105f000089844a00013ab8000030b8008880400017
:105f100009014a000400330000004000818048006d
:105f2000020149008b05e900c909dd008301700009
:105f30000100320013002000c814de004814dd0008
:105f40004709de001200b200c808de0008847000b5
:105f500076ff070001f0a1000cf0a70001f0a000ff
:105f6000beff37006120e100c0ff32000801be0023
:105f70000200be00f7ff37006150e100fcff3a006d
:105f8000baff3700dee907000400be00000006008b
:105f9000889fbe008a9fbe00841f78009eff070076
:105fa0004f00780011003300f0ff2f00838f6c004a
:105fb00006003b00040565000a00a7000800370042
:105fc00009f0a6001000200008003700820f5400de
:105fd000838f5c00030039001000200001003e00a8
:105fe0000000200009f0a7000000ea004f05be00f5
